:020000040000fa
:080000004402040000000000ae
:020000040000fa
:100008000c18000010180000141800001818000040
:100018001c180000201800002418000028180000f0
:100028002c180000301800003418000026020000c8
:10003800c81800003c1800004018000044180000d0
:10004800481800004c180000501800005418000010
:10005800581800005c180000c8180000c8180000f4
:100068006018000064180000681800006c18000090
:1000780070180000c8180000c8180000c818000050
:10008800c818000074180000781800007c180000d8
:100098008018000084180000300200003a020000b6
:1000a8009018000094180000c8180000c818000034
:1000b800c8180000981800009c180000a01800003c
:1000c800c8180000a4180000c8180000c8180000cc
:1000d800c8180000a8180000c8180000c8180000b8
:1000e800c8180000ac180000b0180000c8180000bc
:1000f800c8180000c8180000c8180000c818000078
:10010800c8180000c8180000c8180000c818000067
:10011800c8180000c8180000b4180000c81800006b
:10012800c8180000b8180000bc180000c01800006b
:10013800c8180000c8180000c8180000c818000037
:10014800c4180000c8180000c8180000c81800002b
:10015800c8180000c8180000c8180000c818000017
:10016800c8180000c8180000c8180000c818000007
:10017800c8180000c8180000c8180000c8180000f7
:10018800c8180000c8180000c8180000c8180000e7
:10019800c8180000c8180000c8180000c8180000d7
:1001a800c8180000c8180000c8180000c8180000c7
:1001b800c8180000c8180000c8180000c8180000b7
:1001c800c8180000c8180000c8180000c8180000a7
:1001d800c8180000c8180000c8180000c818000097
:1001e800c8180000c8180000c8180000c818000087
:0801f800c8180000c81800003f
:020000040000fa
:08020000ffffff00ffffff00fc
:020000040000fa
:1002080000000000000000000000000000000000e6
:1002180000000000000000000000000000000000d6
:100228000000000000000000000000009a14000018
:1002380000000000000000000000000000000000b6
:1002480000000000000000000000000000000000a6
:100258000000000000000000000000000000000096
:100268000000000000000000000000000000000086
:100278000000000000000000000000000000000076
:100288000000000000000000000000000000000066
:100298000000000000000000e60200003803000033
:1002a8000000000000000000000000000000000046
:1002b8000000000000000000000000000000000036
:1002c8000000000000000000000000000000000026
:1002d8000000000000000000000000000000000016
:1002e8000000000000000000000000000000000006
:1002f80000000000000000000000000000000000f6
:1003080000000000000000000000000000000000e5
:1003180000000000000000000000000000000000d5
:1003280000000000000000000000000000000000c5
:1003380000000000000000000000000000000000b5
:1003480000000000000000000000000000000000a5
:100358000000000000000000000000000000000095
:100368000000000000000000000000000000000085
:100378000000000000000000000000000000000075
:100388000000000000000000000000000000000065
:100398000000000000000000000000000000000055
:1003a8000000000000000000000000000000000045
:1003b8000000000000000000000000000000000035
:1003c8000000000000000000000000000000000025
:1003d8000000000000000000000000000000000015
:1003e8000000000000000000000000000000000005
:0803f8000000000000000000fd
:020000040000fa
:100400000100000050080000000900000100000089
:100410000000000000ac000002000000000000002e
:1004200004180000fcab000000ac0000010000005c
:1004300004180000fcab000001000000fcab000051
:1004400000ac00004e3800006b3f00006008af00b9
:1004500038180400000000009a1404000000000096
:100460006028af008818040000000000e6020400c5
:10047000000000006048af008c180400000000007d
:1004800038030400000000000f9020000e7f2200bf
:100490000e01880000000000000020000000e000c5
:1004a0000200320000012000200288000c0007003a
:1004b000e0052100010020001100070000002000dd
:1004c0000000e00002003200000002000000000016
:1004d000d60d0200000000000040da000000fe001f
:1004e0004440a900200020000000e000030032008a
:1004f00000002000a00188004440a8000000060081
:1005000091018800800078000000eb0015003700a2
:10051000e280400032a0b4009101ba00e2804000c5
:1005200032a0b4009102ba00e280400032a0b400d0
:100530000002eb00472bde00f507b200602ce10063
:1005400004003a000059eb008301e900fdff3e0082
:10055000040037006128e100010032000082eb0056
:10056000040007001101ba000200e000e8ff3a00b1
:10057000000006003159ba008301e9000c00320086
:100580002159ba008301e900080032000400e000ac
:1005900003003a00e280400032a0b400f5ff3700cb
:1005a00011d9ba008301e900faff3a008100e8009e
:1005b000e180400032a0b40000000600000000000e
:1005c000000000000000000000000000809fbe004e
:1005d000829fbe00849fbe00869fbe00889fbe0093
:1005e00087c0a900e086200066025000f3052000c5
:1005f000640150002606200000034300150020007f
:100600008083e80011003700b91180009000780065
:10061000981180006e04640001087400948f11002a
:10062000020036001000a000080037009200780099
:100630008958780001097800868f50000100390040
:100640000709780081862000918842003202ab00c1
:10065000edff3a003222a9004f04be004f03be0056
:100660004f02be004f01be004f00be00004006001a
:10067000809fbe00829fbe00849fbe00869fbe00fa
:1006800087e0a9003322ab0019003a000047800040
:100690000000e00004003a00150037001500e000fb
:1006a00007003a0012003700408e20006a02400026
:1006b0000083e8001300200002202000e402500024
:1006c00090007800b183fb00a71188000108780032
:1006d000848f50000100390006087800018e200048
:1006e000918811009711800087006100ebff3200b4
:1006f0004f03be004f02be004f01be004f00be00c0
:10070000004006006022b800060220000000d00071
:100710008180d2000482d2008582d2000000a00035
:100720000202520083825a0003003100020242009a
:1007300083824a000000a1000603e900f3ff3a00ab
:10074000000006008001780002003700b1597800ef
:100750000201e9000200e000fcff3a000000060090
:10076000e8874700889fbe008a9fbe008c9fbe001e
:100770008e1f780000047800200020000100200077
:10078000e0b79f00f1b79f006fb19700ffb19700ee
:10079000004380001143800000026100018061007d
:1007a0008000eb00c001dd00020020006120b800e5
:1007b00000017100818171000000eb00e00f510029
:1007c000e08f590071013a00aa15020000000000f4
:1007d0000000e0001d003a00001020000800e000ca
:1007e0006a013200ac140200000000000004be00e8
:1007f0008e150200000000000000e00009003a0031
:1008000092478000a34780000201540083815c006e
:10081000c0428000d1428000800f5100818f59007a
:1008200004003e0071438000001020000128a30056
:10083000560132008615020000000000984788002b
:10084000a94788000010200050013700ac140200b6
:100850000000000090478800a147880000150200b2
:1008600000000000804678000001fb00cf91de0010
:100870003202b1000380b10041042000810f510019
:10088000e08f59002f013e00026001007c0037001c
:100890002c0137002b0137002a01370029013700ce
:1008a00028013700270137002601370025013700ce
:1008b00024013700230137002201370021013700ce
:1008c000200137001f0137001e0137001d013700ce
:1008d0001c0137001b0137001a01370019013700ce
:1008e00018013700170137001601370015013700ce
:1008f0001401370013013700120137005a00370086
:10090000100137000f0137000e013700aa00370031
:100910000c013700260037000a01370009013700b3
:10092000a500370007013700060137000501370031
:1009300004013700a0003700020137000101370031
:100940009d003700ff003700fe003700fd00370034
:10095000fc00370012003700fa003700f9003700ba
:10096000f8003700f7003700f6003700f5003700d1
:10097000f4003700f3003700f2003700f1003700d1
:10098000f0003700ef003700ad0037007f00370080
:100990007e0037007d003700ea0037004e00370048
:1009a000e0140200000000008040eb00f20037007d
:1009b000ac140200000000000004be000a01200088
:1009c000aa150200000000000000e0000400320050
:1009d0009e150200000000000000e0000d003a003b
:1009e000ac1402000000000008005000898058008c
:1009f000c2428000d34280004e1add004211de0068
:100a000002017200c219de00820f5000838f58006d
:100a1000ebff3900ac140200000000000800500099
:100a200089805800c2428000d34280004e1add0007
:100a30004211de0002017200c219de00820f500076
:100a4000838f5800c700310000150200000000002d
:100a5000e0140200000000000a05e900d8ff3a0097
:100a60008040eb00c400370001012000008d200011
:100a7000ee0f0200000000008040eb00be003700d7
:100a8000b0c2b300e01402000000000062140200d3
:100a9000000000007614020000000000661402004e
:100aa0000000000076140200000000007e15020025
:100ab0000000000000047800aa15020000000000f9
:100ac000080040008000eb007614020000000000e7
:100ad0008040eb00a80037006020200001002000cb
:100ae000e0b79f00f1b79f006fb59700ffb5970083
:100af000b0c2b300e0140200000000000007eb00e9
:100b00000a00be0038150200000000000004780052
:100b100062054500e0854d00d01402000000000091
:100b200008064400140032000c00e90080bf9f005a
:100b30000a04be000800be003815020000000000d4
:100b4000881402000000000062044400e0844c00ad
:100b50000c06e900f7ff3a0062054500e0854d000c
:100b60000fb997006110b800000040008180480074
:100b70000a0540008b8548000e07e800e30f570088
:100b8000dfff3a008040eb007b003700b0c2b300cb
:100b9000e0140200000000000d00fb003006b10070
:100ba000740f020000000000761402000000000034
:100bb0008040eb0070003700e08f2000104078008c
:100bc0000004e00004003a00d1c4b30081cf560015
:100bd00012003a0065003700d1c4b300814f5000c5
:100be00005003a0030c4b3008040eb0080cf5600cf
:100bf00061003a005f00370031c4b300814f5000fc
:100c000006003a008040eb0080c4b30080cf56005d
:100c100059003a0080407800570037008040eb00d0
:100c200082c4b300824f500053003a0001c5b300a4
:100c300081cf5600500032008040eb004e0037005c
:100c40008040eb0000c5b300e28f2000924f1000ff
:100c500049003a00b0c2b300e014020000000000f6
:100c6000e04780000000e0000f0032004009200053
:100c7000420a2000000151000281d1008000eb00f7
:100c800050150200000000006028ef006228ef000d
:100c90007047800081478000a2130200000000001e
:100ca000a4150200000000006044b8001ac22f0022
:100cb0003a4388000800be00ce0902000000000090
:100cc0000004be000080eb008080eb00800f540029
:100cd000818f5c0004003200e0c2b300e014020027
:100ce00000000000f2ff3700b0c2b300e0140200c1
:100cf00000000000803e2000d2060200000000003c
:100d0000cf80de00c000dd0000002000761402006d
:100d100000000000e04780000000e0000300320017
:100d20004c130200000000000000fe00ac140200a2
:100d30000000000090478800a14788008040eb0039
:100d40000d003700e08f20000048eb000800e000b5
:100d50000200320086150200000000000d00fb00ba
:100d60000a0037008040eb00030037008d40780018
:100d7000010037008d407800e08f200001487800a6
:100d80008d06fb00000028000d0070004f07780062
:100d90004f06be004f05be004f04be008f00b100dd
:100da00000000600cf33b000889fbe008a9fbe00bf
:100db0008c9fbe008e1f7800000678006000b8008f
:100dc00080b79f0091b79f000080210001002000a4
:100dd000b0b79f00c1b79f003fb49700cfb4970052
:100de000e0bf2a0001002000b0b79f00c1b79f00fc
:100df0003fb09700cfb09700d0b79f00e1b79f00fa
:100e00008c01780002fe2f000f014100c10120007b
:100e100080cb2f000f004000f60c02000000000005
:100e20008086eb00fc0f500054013a004f9994006b
:100e3000df9994007c005100e0805900c09f9c0025
:100e4000d19f9c006011b800a2af9c00b3af9c0082
:100e5000e40f5000e08f5800200136001d002000f4
:100e6000c3cd2f008f8141000307e9002fa8940014
:100e7000bfa89400e00f5000e08f580016003a0021
:100e80008c01780002fe2f000f014100810020003c
:100e900040cd2f000f004000f60c020000000000c3
:100ea000e80f500028013a004f9a9400df9a94000e
:100eb00068025200e0825a00c49f9c00d59f9c00ab
:100ec0002fa89400bfa8940068005000e08058004c
:100ed000a0af9c00b1af9c002fa89400bfa89400c5
:100ee0004f999400df999400020270008382700091
:100ef00002f82f000501610015013a00f2ff2f00f2
:100f0000f30f20004faa9400dfaa9400820f520032
:100f1000838f5a0010013e000b182000f3172000a9
:100f2000830f5000e08f580001003e0080057800dc
:100f30008c01780002fe2f000f0141008b00780029
:100f4000c0cd2f000f004000f60c02000000000092
:100f5000000578008b0f550001013a000a01780066
:100f6000c1cd2f008f804000c0e52f000f00400052
:100f700044150200000000000060fe00f03d20006b
:100f80006628b4008a017800c2cd2f000f0141000d
:100f90004fa89400dfa8940036140200000000005f
:100fa000e0af9f00f1af9f000a017800c1e52f007c
:100fb0008f804000c0cd2f000f004000441502007c
:100fc000000000000a0278008000eb004fa99400a6
:100fd000dfa99400c0e52f000f004000221202009c
:100fe000000000000a017800c1e52f008f8040005a
:100ff000c0cd2f000f0040001015020000000000bf
:101000000000e000a00032004faa9400dfaa940084
:10101000f4b79f0085bf9f0000f02f00f10f200064
:10102000ffb29700050260008fb99700038160004e
:101030008001eb00c010dd00000020006121b8003d
:10104000020070008380700002002000830f2000e7
:10105000820f5000838f58000f003a000000eb0011
:10106000a0b79f000a00e000480032000e007800a0
:10107000c1e52f008f804000010145000000e8001d
:101080001042780031486200828f5000fbff3a0026
:10109000aab79f003d0037005fb09700efb0970000
:1010a000e00f5000e08f5800380032008000eb0065
:1010b0000a007800be140200000000004fa994004e
:1010c000dfa994005fb29700efb29700820f520041
:1010d000838f5a002d0039007fb297008fba970096
:1010e00004004000e0804a005fb29700efb2970032
:1010f000800f5200818f5a002400310002015200fb
:1011000002007800741502000000000002002800b0
:1011100003002000b2b79f00c3b79f003fb1970004
:10112000cfb197000204e0000c003a000000e80094
:10113000c81add004811de0002817200c819de0005
:101140000204e00005003a000000e800c818dd00d5
:101150004811de0002817000c819de002100200065
:10116000a1b79f0002c1ea0083cb2f008f8141000d
:1011700000804100c06090008140610041609800a3
:10118000c060930002c1600042609b004faa9400bf
:10119000dfaa9400f4b79f0085bf9f008000eb009a
:1011a0000b007800be140200000000004fa994005c
:1011b000dfa99400820f5400838f5c001100390076
:1011c0007fb297008fba970004004000e0804a0089
:1011d000800f5400818f5c000a003100020154002e
:1011e00002007800741502000000000085cb2f007b
:1011f0008f8242000080420080c0eb004160980076
:10120000516098000b017800c1e52f008f804000ed
:10121000c0cd2f000f00400010150200000000009c
:101220000000e000180032008b017800c2cd2f00d2
:101230000f0141004fa89400dfa89400040c0200a5
:10124000000000008b017800c2e52f000f01410073
:101250004fa89400dfa89400040c020000000000d6
:101260000b017800c1e52f008f804000c0cd2f001a
:101270000f00400010150200000000000000e00018
:1012800039003a007dff2f006fa89700ffa8970054
:10129000c0af9c00d1af9c006159b8004f9a940038
:1012a000df9a94000200520083805a00c09f9c0085
:1012b000d19f9c002faa9400bfaa94000201520063
:1012c00083815a00a2af9c00b3af9c00e40f500092
:1012d000e08f5800e5fe3e00010037001d002000b1
:1012e0008c0178000001eb0041002000c0fd2f00c0
:1012f0000f004000f60c020000000000e40f500058
:101300001b003a000fb097009fb097006fa997009d
:10131000ffa99700800f5100818f590016003a00f5
:10132000d02c2100a0b79f00f03d20006628b4001b
:10133000230020007c8157000800be00d21102006b
:10134000000000000d003700edff2f000b003700fc
:10135000ddff2f0009003700cdff2f000700370009
:10136000bdff2f00050037008dff2f000300370061
:10137000adff2f00010037009dff2f000d0078000a
:101380004f0778004f06be004f05be004f04be0059
:10139000ef1fb100ef13b10000000600e687470021
:1013a000889fbe008a9fbe008c9fbe008e1f780063
:1013b0000004be0010c22f006608e30002003200e5
:1013c0006628ef007f0037006628ef00e00f54002a
:1013d000e08f5c0011003a00008021000100200035
:1013e000f0b79f0081bf9f000005be00b012020051
:1013f000000000000000e00008003a00f03d20007e
:101400006628b4000a00be00cc13020000000000f1
:1014100018002000090020006a003700004020006a
:101420000000e9008000eb000080ea008180ea0013
:1014300000016400018064008000780002007800f0
:101440000004be0000c02a0001002000f0b79f0089
:1014500081bf9f000005be00800f5400818f5c009b
:10146000530039000000200001002000f0b79f0069
:1014700081bf9f000005be00000020000100200089
:10148000f0b79f0081bf9f007fb097008fb8970093
:10149000800f5400818f5c00450031000004be00c5
:1014a000430037000c6020008c0178000001eb0045
:1014b0000800be00040c02000000000000077800d5
:1014c0000d4020008c0f5700370031000800be008f
:1014d000b0120200000000000000e00032003a00fc
:1014e0006168b800800f5400818f5c001c003900d7
:1014f000f03d20006628b4000800be00cc130200b6
:1015000000000000e0bf2a0001002000f0b79f00ab
:1015100081bf9f000001be000e00e0000c003a00f9
:101520000d00e9008000eb000080ea008180ea0005
:1015300000026100018161008201780004017800ed
:101540000200be00800f5400818f5c0012003a0040
:101550000000eb00a60e0200000000000e003700a5
:101560005c1502000000000000057800f03d20003e
:101570006628b4000800be00cc1302000000000082
:1015800010002000a60e0200000000000a007800f3
:10159000ae150200000000000040200008044000da
:1015a000e0844c000700370008844600e0844c00cb
:1015b0008a0f54008b8f5c00baff39000084eb0067
:1015c0008084eb000800be004f0778004f06be0085
:1015d0004f05be004f04be006f00b10000000600c2
:1015e0000000fe0061e7af00feff37003200f800a8
:1015f000070020000700e0002700320000008800fc
:1016000001008800a00f200090018800870f2000b3
:101610000708e100710032004d003700860020000d
:1016200002000900325b780091018800e21f40004f
:10163000e09f4800870f20000708e1000400320007
:101640008403780085c363008783ea0011003200b9
:101650000408bb000598bb00829fbe003000240038
:10166000820f2000930180000310e1004220af00b0
:10167000000024000081eb00513e20006608f800c5
:10168000ea120200000000006608f900800feb007b
:101690004f01be004f00be00e3815100dfff31006b
:1016a000e2814100070033000082eb008082eb0002
:1016b0008600200003800900325b78008001eb0087
:1016c000d9ff37006628ef003200f900000006005d
:1016d0008000200005000900325878008503620070
:1016e000870363008783ea00150032000000eb00e7
:1016f0000408bb000598bb00864278000580fd0009
:101700000508bb000680fd000698bb00829fbe0056
:101710001000240060c7a80060c7af002080b2009e
:101720000081eb00513e20006608f800ea1202003a
:10173000000000006608f900800feb004f01be00ba
:10174000400020000020b4000000eb0000a0b40026
:10175000e6815100deff3100e581410007003300e2
:10176000e00020000200090000a0eb000380090057
:10177000325878008001eb00d8ff37006628ef0070
:101780003200f90000008000010080000000060027
:101790008000200002000900325878000000eb00b1
:1017a0000408bb0005c8bb00829fbe0000002400e7
:1017b0000081eb00513e20006608f800ea120200aa
:1017c000000000006608f900800feb004f01be002a
:1017d00000a0ec000000eb0000a0b400e381510089
:1017e000ebff3100e2814100e4ff33008000200084
:1017f0000082eb008082eb00038009003258780001
:101800008001eb00e5ff3700f8874700889fbe00a6
:101810008a9fbe008c9fbe008e1f78000004be0011
:10182000b2b79f0003077800c1fd2f008f804000f2
:101830000e007800be14020000000000efa8970020
:101840000100e000010032000080e80008014000d3
:10185000e0814c00c2b79f00d3b79f00c02020009a
:1018600001002000f0af9f0081b79f000005be007f
:10187000381502000000000080067800620545006f
:10188000e0854d000006eb004f0037000a00be0067
:1018900038150200000000000001be006200450093
:1018a000e0804d00f2b79f00e3b79f0038150200bb
:1018b000000000000002be0064054500e0854d0008
:1018c0007fb19700efb197004fb39700dfb3970058
:1018d000820f5300838f5b003a003600800f540064
:1018e000818f5c0037003100bfb3970087bf9f0036
:1018f000880f5100898f59000e00360008015100f1
:1019000002007800e4b79f00f5b79f00741502004d
:1019100000000000000178003fb097000200400086
:1019200080bf9f00020157006fb29700ffb297007f
:10193000010037000e0178004fb39700dfb3970026
:10194000860f5200878f5a000600310004005300b2
:10195000f2b79f0074150200000000007fb19700ed
:101960000001510002064600bfb397000700e000e7
:101970001400320000f02f00f10f200088016000f9
:10198000098360006132b80094b79f00a5b79f003b
:10199000c022dd0004002000611bb80006027200b6
:1019a0008782720006002000870f2000860f5200f9
:1019b000878f5a00030032000fb8970050150200bd
:1019c000000000008d06e9000d00e000afff3a00c6
:1019d0000c0078004f0778004f06be004f05be0090
:1019e0004f04be008f01b10000000600ee874700e3
:1019f000889fbe008a9fbe008c9fbe008e1f78000d
:101a0000c0b79f0081057800b2b79f000306780039
:101a1000ac140200000000000004be008006eb00d1
:101a2000f04280000c80b900e24280000c16b80041
:101a30008d0640007e1502000000000000057800c1
:101a4000aa150200000000000a0540000a05d100a6
:101a5000dab79f000007eb000b00e0004c003200fb
:101a60008ebf9f00feb79f000fb897000080550003
:101a7000e0b79f007e15020000000000ffb0970055
:101a8000010550006fb19700820f5500010036002c
:101a9000020578005fb297008a0f520006003600f8
:101aa0008fb89700010045008b0f50000b003a00e3
:101ab0000a00e000090032000a007800d014020099
:101ac000000000007fb197000a014100f2b79f00bb
:101ad0000fba97000a02420084bf9f00aa150200b5
:101ae000000000000000e00008003a00ac14020012
:101af000000000000801500089815800820f560044
:101b0000838f5e00f5ff3e00210037008e80550078
:101b100000057800810f55000100360001057800ae
:101b20008a0078004fb097007c110200000000008e
:101b30003fb097000000e000080032008a01780002
:101b40004fb19700000278001400be006e12020030
:101b5000000000003fb197000089be000a0747005f
:101b6000ac140200000000000004be008e8f55007f
:101b7000070032007fb297000a025200f4b79f00bc
:101b80004fb097000a004000c0b79f00b6ff370073
:101b90000e0078004f0778004f06be004f05be00cc
:101ba0004f04be00ef00b100000006000a00fa007a
:101bb000889fbe008a9fbe008c9fbe006028ef00f9
:101bc0006228ef00781302000000000070478800d0
:101bd00081478800a2130200000000006011b800d5
:101be0007047800081478000201102000000000043
:101bf000ac140200000000000005be000000eb0075
:101c0000e04788006000b80080bf9f0091bf9f0040
:101c10002c3f21008006eb00000020006101b8008d
:101c2000e2b79f00f3b79f00ac1402000000000071
:101c30000004be000fb897009fb897000001540041
:101c400081815c00e4428000f54280004528dd008f
:101c5000cb20de00810070004520dd00800f5100a8
:101c6000818f590006003600120020000c00be00d3
:101c70004e1402000000000088bf9f0099bf9f0023
:101c80000060fe000a0454008b845c00d242800095
:101c90006a11b900c04280006a00b80081004100aa
:101ca000800f5400818f5c0016003600a201800076
:101cb000008021000100200000f0a4008180d200fb
:101cc000a101880010007800a2018800d12c210019
:101cd000810f50000b003a00f20f20006fb0970008
:101ce000ffb097004e14020000000000100020001a
:101cf000e0478800e803fc0008180200000000002c
:101d00000000fe0010002000b003020000000000f0
:101d100000047800d8b79f003fe897000004e00077
:101d200003003a00d0c2b300e0140200000000003b
:101d300000102000800f5400bbff3200ac140200e2
:101d4000000000000005be00b7ff37000f03b00021
:101d5000889fbe008a9fbe008c9fbe008e1f7800a9
:101d6000e0b79f00c021200001002000a0a79f0035
:101d7000b1a79f000006be00381502000000000059
:101d80000001780082bf9f0062064600e0864e0098
:101d90004a0037000c00be003815020000000000a9
:101da0000004be0062064600e0864e000c00be0045
:101db000381502000000000062064600e0864e0072
:101dc00008015000f2b79f0002007800741502006d
:101dd00000000000000778004a0220008005eb00a8
:101de0002e0037000b0045008e0f5000010036001a
:101df0000b0557000a0278008b0078000c01be002a
:101e000080fc2f000f0040002212020000000000a2
:101e100000f02f00f10f200008026000098160002f
:101e200082017800040178000200be000200200058
:101e3000830f2000820f5000838f58000d003a005e
:101e40006628ef006fb097000000e000020032004b
:101e5000f03d2000304388008a01780082fc2f008a
:101e60000f0141000800be00f20a0200000000005d
:101e700008003700f03d2000304388008a017800d8
:101e800082fc2f000f0141000800be00d2110200a9
:101e9000000000000004be008a8545008e8f5500ba
:101ea000d0ff39007fb197000c064100e0864e005c
:101eb0000fb897000000e90080bf9f000fb997009e
:101ec0000200e000b3ff3a00961502000000000097
:101ed0004f0778004f06be004f05be004f04be00fe
:101ee0000f03b100000006000800fa00889fbe0042
:101ef0008a9fbe008c1f7800622020000300200013
:101f0000f2b79f0083bf9f000205be00e10f5000a3
:101f100003003a00c0202000010020000400370028
:101f2000e20f500005003a0060212000010020006f
:101f3000f0b79f0081bf9f000005be000a00be00f1
:101f40003815020000000000000678006044b80068
:101f50001a00370062004500e0804d00381502008d
:101f6000000000000001be0064054500e0854d0052
:101f70000a00be0092bf9f00a3bf9f003815020059
:101f8000000000001fb99700afb997000200500091
:101f90008380580068150200000000000002be00a7
:101fa0001fb99700afb997000800be00c01002002b
:101fb000000000000004be000c06e9000c00e00078
:101fc000e4ff3a000800be004f0678004f05be004f
:101fd0004f04be000080fa0000000600e4874700be
:101fe000889fbe008a9fbe008c9fbe008e1f780017
:101ff00081bf9f000100e0002600320080057800cc
:10200000810478000c8e20008c86e8006e07460064
:10201000800020009c0f100003003a0010002000f8
:1020200014140200000000001d0078000005570095
:10203000820020009c0051000a047800810f5500a6
:102040000100360001047800890f540001003600b9
:1020500009047800080178008b007800a2030200d0
:1020600000000000218e200091084400880f5500d8
:1020700002003a00608e2000800e7800018e200061
:10208000910844008884540002003200888545008d
:10209000dfff37003322ab0001003a0087e0a800e1
:1020a0000fb897004f0778004f06be004f05be00df
:1020b0004f04be004f00b10000000600d008000031
:1020c0001000000002000000455a42004c2076003b
:1020d000312e3000312055004152540000000000e4
:1020e000fa0800000200000000000000fc080000e8
:1020f0000200000000000000ee08000004000000e4
:1021000000000000fe0800000200000000000000c7
:10211000f20800000400000000000000e0080000d9
:102120000e000000000000006808000068000000c9
:10213000000000005808000004000000000000003b
:102140005c080000040000000000000064080000bb
:102150000200000000000000f6080000040000007b
:10216000000000005008000008000000000000000f
:1021700066080000020000000000000000000000ef
:102180000802fa00889fbe008a9fbe008c1f78005c
:102190000004be000205be000403be000c202000a7
:1021a000180037000c0278008000eb000a01be0026
:1021b000e0de2f000f00400096bf9f00a7bf9f00ea
:1021c00022120200000000008c017800e2de2f00e5
:1021d0000f0141000800be006e1202000000000066
:1021e0000004be004a15b0000b80b0001fbb970072
:1021f000afbb97007fb097008fb8970000035300e4
:1022000081835b006160b800f0b79f0081bf9f00d1
:10221000800f5300818f5b00e2ff310006067800db
:102220000600e000f7ff3a000800be004f06780005
:102230004f05be004f04be000080fa0000000600fb
:10224000889fbe008a9fbe000005be000204be003b
:1022500097e0a90097c0a9003022ef00e086200097
:102260000008eb0020150200000000002c15020001
:10227000000000009005800000c0a00000d0a10078
:1022800000e0a1009005880031e2a8003062a800bb
:10229000e00f5400e08f5c0002003a0030a2a8007a
:1022a0000c0037000800440089804c000000450005
:1022b00081804d004249dd00ce41de008301710086
:1022c0004241dd0082030200000000008000e900be
:1022d000c11188003342a8003222a90087c0a9009a
:1022e00087e0a90097c0a80097e0a8004f05be00ae
:1022f0004f04be0000000600889fbe008a9fbe00fb
:102300008c9fbe008e1f7800010778000e00e00051
:102310001d003200000678008e047800cb86200075
:102320004d0620008b8646001b8556000904780068
:102330008a8f5400010036000a04780008007800f3
:10234000f0140200000000009b00780008017800f3
:102350000c007800a20302000000000008064600fe
:10236000c186200091084400880f550002003a0001
:1023700000872000800d78008186200091081400dd
:1023800088845400e8ff3a000e0078004f07780078
:102390004f06be004f05be004f04be000000060001
:1023a0000000fe00809fbe003200f800910188000e
:1023b0000300e0001f0032000202be000600200001
:1023c0000600e0004220ae00360020006303430018
:1023d00003003700060242008682520015003600d4
:1023e0008080eb0090c0ba00b003ba008183630024
:1023f0006630e10004003a0090c0ba0081836300b7
:10240000b000ba00818363000000e0004220af000a
:102410003220ec008783ea00eeff320000daeb00a6
:102420008502e900030032000603e900fbff3a00e1
:10243000e2ff37003200f9004f00be00f20a04004c
:10244000000000000400e000230032008002780059
:102450006208b80036002000110009004688d80044
:10246000000141000380b0009701800093018800c3
:10247000610252000200a7000b0037000201e900d0
:10248000610242000110a6000c0037000281e80042
:10249000925aba000482e9000e00390002003700a7
:1024a00001000900d25aba00c2daba000201e800fb
:1024b0000203e8004220af003220ec006302520029
:1024c000f7ff31006202420002003300048009007d
:1024d000d25aba0097018800000006000080ea0086
:1024e0008180ea00850020000632280087db2e006c
:1024f00010003700b25a7800b25278000400680029
:10250000840020008100d1000080d3000200390047
:1025100006006800878068008100d1000080d30039
:102520000200390006006800878068000402e900a4
:10253000f4ff3a00e2815100eeff3b00e2814100ee
:102540000400320012406800440020000300200014
:10255000ecff37000080ea008180ea0000000600fe
:10256000920180009101880003c02f00008061006b
:102570000320200004022000040040000083eb0040
:102580008083eb000f000900c01fba000f00090094
:102590004f0363008682ea0009003a000f00090039
:1025a000b09fba000f000900cf83630087c2ea0022
:1025b00003003a0004004000f0815100f1ff3a00ae
:1025c000920188004220af001000050000000500c5
:1025d0000000fe0013028000040e2000003b880073
:1025e000374380006628ef00013bb80061322100cc
:1025f000b709b0001402880081005300313b880005
:1026000000f0a600373b880061e7a800000000004a
:10261000000000000200a600130288008000eb000a
:102620008003eb000208a30061e7af00feff3a0061
:1026300061c7a9001302880000000600889fbe0041
:102640000004be00c0428800d1428800401fb00094
:102650000180b000823e20000300200082030200bf
:1026600000000000e0428800f142880000122a00c9
:1026700071002000080040008980480002242400e6
:10268000f3002000820302000000000020438800c5
:102690004f04be00000006000200fa00008e200079
:1026a0001000e000feff3a000110200092118000af
:1026b00002806000fdff3a00c01180004500dd008f
:1026c000f0bf9f007fb897000000e00006003200d6
:1026d0007fb997000201e900f2bf9f007fb8970021
:1026e0000000e000faff3a000080fa000000060057
:1026f0004427ef00c9e2a900401680008023b30000
:1027000040168800cd62a80000fe2f00a606b60085
:10271000a000b30030358800f10f2e005036800045
:10272000808060000050200001007000503688005a
:1027300020002000d047880000902000d103200016
:10274000000006000001be0005a1a9000421a900a7
:10275000f0fc2f000421b6000441a80002a1ef0004
:10276000b2478800c3478800f1ff2c002005800095
:102770008080600001e0a000210588009460a8002e
:102780000200be001e1302000000000005e1a800c8
:10279000000006000000fe0061e7af00feff37000a
:1027a000020020000200e00004003a0092018000d4
:1027b000910188000308bb00920188000000880096
:1027c000010088002004240060c7a80060c7ae0094
:1027d0001084b2000081eb00513e2000ea12040098
:1027e000000000008000780000002800cc02b60045
:1027f0004f00de000108a3000a00320061168000cd
:10280000cf08de000104a2008180fb00cf08dd00bc
:10281000f2ff27006316800003016100028170004f
:10282000621688000000060001478000e880100062
:10283000810f50000b00360003202000028e200084
:10284000941180008480610001003a0087e0a800b4
:102850000140fe008400200092005200808f500052
:10286000f7ff3900000006000000fe006608f800cf
:102870006628ef00809fbe00829fbe00040c02000d
:10288000000000004f01be004f00be006608f900c6
:10289000800feb00f20a040000000000f10fb2000c
:1028a000821f7800010170004f017800040032009f
:1028b000809fbe000200be000401be000602be00f2
:1028c00000000600000020000000a70020002000fb
:1028d00092018000f10f2000910188009080ba00e1
:1028e0001000ba0092018800000006000400fa00ff
:1028f000e0bf9f00f1bf9f004100200064805700af
:10290000ee0f0200000000000080fa000000060048
:102910000400fa00e0bf9f00f1bf9f0031002000db
:1029200064805700ee0f0200000000000080fa00f3
:1029300000000600801f78008460a9005028ec0089
:102940000000eb0052a8b40054a8b40056a8b4008c
:102950004f0078000040060000088000814280009f
:10296000020880008342800000015100faff33001a
:1029700083816800f8ff3a0000000600010178003a
:1029800033002000110009000380d8000000d000af
:102990000200e0004220ae000109780000000600bd
:1029a0000200fa00f0bf9f00210020000f80e90024
:1029b000ee0f0200000000000080fa000000060098
:1029c0000200fa00e0ff9f00110020000f80e900e4
:1029d000ee0f0200000000000080fa000000060078
:1029e00041438000810f50000400360081862000a2
:1029f0000140fe00910f1000fdff390000000600ad
:102a00000200fa00110020000f80e9007c11020092
:102a1000000000006ff897000080fa000000060038
:102a20008001eb000201e9004200ae000000050059
:102a3000b0417800b1c16900faff32001000050012
:102a4000608e2000104788002047880066005000f4
:102a50000008eb00000006000087200050438800bb
:102a600060438800680050000008eb00000006008a
:102a700092018000910188009080ba001000ba0095
:102a800092018800000006000200e000030032000e
:102a90000201e900028009003158780000000600b8
:102aa0000200e000030032000201e9000280090098
:102ab0000158780000000600000e2000120280007d
:102ac0008280ea004220b70001006000000006009a
:102ad0000001be008100d1000080d3000200400050
:102ae0008380480000000600000178000000d1004b
:102af00002004000e0004900000006004043800062
:102b0000010620000080500000000600e086200042
:102b10001020a10030a2a800000006008011800053
:102b20004500de00610060000000060061e7af00c4
:102b3000feff370061c7a9000000060000478000c3
:102b4000680010000000060097c0a80097e0a800e9
:102b500000000600404380000000060042a0b600ce
:102b600000000600ffffff00ffffff00ffffff0068
:102b7000ffffff00ffffff00ffffff00ffffff0061
:102b8000ffffff00ffffff00ffffff00ffffff0051
:102b9000ffffff00ffffff00ffffff00ffffff0041
:102ba000ffffff00ffffff00ffffff00ffffff0031
:020000040000fa
:10300000cd12ff00ffffff0000090000ffffff00df
:08301000cc18040000000000d0
:020000040000fa
:10301800561b040000000000561b040000000000be
:10302800561b040000000000561b040000000000ae
:10303800561b040000000000561b0400000000009e
:10304800561b040000000000561b0400000000008e
:10305800561b040000000000561b0400000000007e
:10306800561b040000000000561b0400000000006e
:10307800561b040000000000561b0400000000005e
:10308800a819040000000000561b040000000000fe
:10309800561b040000000000561b0400000000003e
:1030a800561b0400000000009419040000000000f2
:1030b800561b040000000000561b0400000000001e
:1030c800561b040000000000561b0400000000000e
:1030d800561b040000000000561b040000000000fe
:1030e800561b040000000000561b040000000000ee
:1030f800561b040000000000561b040000000000de
:10310800561b040000000000561b040000000000cd
:10311800561b040000000000561b040000000000bd
:10312800561b040000000000561b040000000000ad
:10313800561b040000000000561b0400000000009d
:10314800561b040000000000561b0400000000008d
:10315800561b040000000000561b0400000000007d
:10316800561b040000000000561b0400000000006d
:10317800561b040000000000561b0400000000005d
:10318800561b040000000000561b0400000000004d
:020000040000fa
:103198000f9020000e7f22000e0188000000000022
:1031a800000020000000e0000200320000012000c2
:1031b80020028800140007003c0107000000e0001e
:1031c80003003a00a0ca21000100200002003700d5
:1031d8000000200001002000810f70000100320073
:1031e80014000700000020000000e0000200320088
:1031f80000000200000000005c1b0200000000004c
:103208000040da000000fe004440a9000000200051
:103218000000e0000300320000002000a001880048
:103228004440a800000006008a1f78008b1f780021
:103238000000060091018800800478000000eb007f
:103248001a003700e284440032a0b4009905ba009d
:10325800e284440032a0b4009906ba00e284440033
:1032680032a0b4000006eb00476fde00fd07b20095
:10327800636ce10003003a00ebff07000000eb007d
:103288000a003700606ce10004003a00005deb00c2
:103298008b05e900fdff3e00040037006168e1008e
:1032a800010032000086eb000b00070019c7ba00c6
:1032b8001905ba000e04e00003003a000a00e00015
:1032c800e0ff3a0000000600fe07b2009e018800f9
:1032d8008a047800f5ff3700395dba008b05e900ec
:1032e8000c003200295dba008b05e90008003200a5
:1032f8000c00e00003003a00e284440032a0b4006d
:10330800f5ff370019ddba008b05e900faff3a002e
:103318008904e800e184440032a0b40000000600fb
:103328003400f800881f780008002000a8018800f1
:103338004f0478000000fa008580a9000080fa0098
:103348003400f90000400600809fbe003400f800f9
:1033580000002000a00188000000fa003040800032
:10336800e10f50001a003a002140800040408000e0
:10337800808f500016003c00cb82a80010408000cf
:10338800e10f500003003a00cbc2a9000228ef0069
:1033980003003700cbc2a8001000200010408800ae
:1033a800204080000000e800204088002140800084
:1033b80040408000808f500005003a000628ef004a
:1033c800cbc2a9000228ef0000c3b30000e8b70091
:1033d80030408000e20f50001a003a00214080007f
:1033e80040408000808f500016003c00cb82a8002f
:1033f80010408000e10f500003003a00cba2a90062
:103408000228ef0003003700cba2a800100020001c
:1034180010408800204080000000e800204088001c
:103428002140800040408000808f500005003a0015
:103438000628ef00cba2a9000228ef0000c3b300c2
:1034480000e8b70030408000e30f50001a003a004f
:103458002140800040408000808f500016003c00d2
:10346800cb82a90010408000e10f500003003a0011
:10347800cbc2a9000228ef0003003700cbc2a80086
:103488001000200010408800204080000000e80064
:10349800204088002140800040408000808f5000fc
:1034a80005003a000628ef00cbc2a9000228ef0069
:1034b80000c3b30000e8b70030408000e40f5000bc
:1034c8001a003a002140800040408000808f500060
:1034d80016003c00cb82a90010408000e10f50008c
:1034e80003003a00cba2a9000228ef00030037002e
:1034f800cba2a800100020001040880020408000c7
:103508000000e80020408800214080004040800002
:10351800808f500005003a000628ef00cba2a900d2
:103528000228ef0000c3b30000e8b7003040800075
:10353800e50f50001a003a0021408000000a2000e0
:10354800808f500016003c00cb02a800104080007d
:10355800e10f500003003a00cb22a9000228ef0037
:1035680003003700cb22a80010002000104088007c
:10357800204080000000e8002040880021408000b2
:10358800000a2000808f500005003a000628ef004e
:10359800cb22a9000228ef0000c3b30000e8b7005f
:1035a80030408000e60f50001a003a0021408000a9
:1035b80050408000808f500016003c00cb02a800cd
:1035c80010408000e10f500003003a00cb22a90010
:1035d8000228ef0003003700cb22a80010002000cb
:1035e80010408800204080000000e800204088004b
:1035f8002140800050408000808f500005003a0034
:103608000628ef00cb22a9000228ef0000c3b30070
:1036180000e8b70030408000e70f50001a003a0079
:103628002140800050408000808f500016003c00f0
:10363800cb02a90010408000e10f500003003a00bf
:10364800cb22a9000228ef0003003700cb22a800f4
:103658001000200010408800204080000000e80092
:10366800204088002140800050408000808f50001a
:1036780005003a000628ef00cb22a9000228ef0037
:1036880000c3b30000e8b70020aa2e003008880065
:1036980084e0a9000080fa003400f9004f00be0061
:1036a800004006000040da000000fe0000000500af
:020000040000fa
:1036b8000000fa0000022800800888000621ef00b8
:1036c800f00020006008880031058000f0ff280025
:1036d8000080600000e0a0003005880084e0a900b8
:1036e80094e0a80010c1a90011e1a800513680009b
:1036f800f00f2e0080806000003020000100700074
:10370800503688002135800000fe2f0000806000c0
:10371800a000b300203588002002a9000111800014
:1037280090ff2f00008060000010a00000118800aa
:1037380020a2a9002062a900900120004011880061
:1037480023a2a90023e2a9009580a80051058000c2
:1037580080ff2f00008060000020a0005005880036
:103768008560a90021e2a8002342a800cde2a900b3
:10377800c9e2a900c9e2a800cdc2a900c9c2a9002e
:10378800cda2a900c9a2a900cd82a900c982a90019
:10379800cd22a900c922a900cd02a900c902a90009
:1037a800cce2a900c8e2a900ccc2a900c8c2a900fd
:1037b800cbc2a900cba2a900cb82a800cb02a8004b
:1037c800cbe2a800cb22a900a40109000000000058
:1037d8000100370000000000cae2a800cac2a80021
:1037e80010118000640060000000e0000100320059
:1037f8005500370010118000620060000000e000f2
:10380800020032002222a9004f0037001011800068
:10381800610060000000e000060032003011800006
:103828000040780000e8b70000c8bf000000fb00b7
:1038380020118800a4010900000000000180200078
:103848009140780000c3b30080cf500005003a00d3
:103858000428ef000628ef00cb22a900cbc2a9005c
:10386800cba2a900018020009140780010c3b300ca
:1038780080cf500003003a000428ef001000200019
:1038880030408800018020009140780020c3b300b8
:1038980080cf500003003a000428ef0020002000e9
:1038a80030408800018020009140780030c3b30088
:1038b80080cf500003003a000428ef0030002000b9
:1038c80030408800018020009140780040c3b30058
:1038d80080cf500003003a000428ef004000200089
:1038e80030408800018020009140780050c3b30028
:1038f80080cf500003003a000428ef005000200059
:1039080030408800018020009140780060c3b300f7
:1039180080cf500003003a000428ef006000200028
:1039280030408800018020009140780070c3b300c7
:1039380080cf5000a7ff3a000428ef007000200055
:0c39480030408800a4ff3700a3ff3700c8
:020000040000fa
:103954000008000008000000000000000808000043
:103964000400000002000000c8004000060000003f
:04397400000000004f
:020000040000fa
:020000040001f9
:0457f8004e38000027
:020000040000fa
:020000040001f9
:0457fc006b3f0000ff
:00000001FF
